{
  "contractName": "VotingSystem",
  "abi": [
    {
      "anonymous": false,
      "inputs": [
        {
          "indexed": false,
          "internalType": "address",
          "name": "voterAddress",
          "type": "address"
        },
        {
          "indexed": false,
          "internalType": "string",
          "name": "candidate",
          "type": "string"
        }
      ],
      "name": "VoteCast",
      "type": "event"
    },
    {
      "anonymous": false,
      "inputs": [
        {
          "indexed": false,
          "internalType": "address",
          "name": "voterAddress",
          "type": "address"
        },
        {
          "indexed": false,
          "internalType": "bytes32",
          "name": "voterKey",
          "type": "bytes32"
        }
      ],
      "name": "VoterRegistered",
      "type": "event"
    },
    {
      "inputs": [
        {
          "internalType": "uint256",
          "name": "",
          "type": "uint256"
        }
      ],
      "name": "candidates",
      "outputs": [
        {
          "internalType": "string",
          "name": "name",
          "type": "string"
        },
        {
          "internalType": "uint256",
          "name": "voteCount",
          "type": "uint256"
        }
      ],
      "stateMutability": "view",
      "type": "function",
      "constant": true
    },
    {
      "inputs": [
        {
          "internalType": "address",
          "name": "",
          "type": "address"
        }
      ],
      "name": "voters",
      "outputs": [
        {
          "internalType": "bool",
          "name": "isRegistered",
          "type": "bool"
        },
        {
          "internalType": "bytes32",
          "name": "voterKey",
          "type": "bytes32"
        }
      ],
      "stateMutability": "view",
      "type": "function",
      "constant": true
    },
    {
      "inputs": [],
      "name": "registerVoter",
      "outputs": [
        {
          "internalType": "bytes32",
          "name": "voterKey",
          "type": "bytes32"
        }
      ],
      "stateMutability": "nonpayable",
      "type": "function"
    },
    {
      "inputs": [
        {
          "internalType": "string",
          "name": "name",
          "type": "string"
        }
      ],
      "name": "addCandidate",
      "outputs": [],
      "stateMutability": "nonpayable",
      "type": "function"
    },
    {
      "inputs": [
        {
          "internalType": "bytes32",
          "name": "voterKey",
          "type": "bytes32"
        },
        {
          "internalType": "uint256",
          "name": "candidateIndex",
          "type": "uint256"
        }
      ],
      "name": "vote",
      "outputs": [],
      "stateMutability": "nonpayable",
      "type": "function"
    },
    {
      "inputs": [],
      "name": "getWinningCandidate",
      "outputs": [
        {
          "internalType": "string",
          "name": "",
          "type": "string"
        }
      ],
      "stateMutability": "view",
      "type": "function",
      "constant": true
    }
  ],
  "bytecode": "0x608060405234801561000f575f80fd5b506111a98061001d5f395ff3fe608060405234801561000f575f80fd5b5060043610610060575f3560e01c80633477ee2e14610064578063462e91ec146100955780639ef1204c146100b1578063a3ec138d146100cd578063ecb617d9146100fe578063f927cc291461011c575b5f80fd5b61007e60048036038101906100799190610710565b61013a565b60405161008c9291906107d4565b60405180910390f35b6100af60048036038101906100aa919061092e565b6101ef565b005b6100cb60048036038101906100c691906109a8565b61024f565b005b6100e760048036038101906100e29190610a40565b610401565b6040516100f5929190610a94565b60405180910390f35b61010661042c565b6040516101139190610abb565b60405180910390f35b61012461059d565b6040516101319190610ad4565b60405180910390f35b60018181548110610149575f80fd5b905f5260205f2090600202015f91509050805f01805461016890610b21565b80601f016020809104026020016040519081016040528092919081815260200182805461019490610b21565b80156101df5780601f106101b6576101008083540402835291602001916101df565b820191905f5260205f20905b8154815290600101906020018083116101c257829003601f168201915b5050505050908060010154905082565b600160405180604001604052808381526020015f815250908060018154018082558091505060019003905f5260205f2090600202015f909190919091505f820151815f01908161023f9190610cee565b5060208201518160010155505050565b5f805f3373ffffffffffffffffffffffffffffffffffffffff1673ffffffffffffffffffffffffffffffffffffffff1681526020019081526020015f209050805f015f9054906101000a900460ff166102dd576040517f08c379a00000000000000000000000000000000000000000000000000000000081526004016102d490610e07565b60405180910390fd5b82816001015414610323576040517f08c379a000000000000000000000000000000000000000000000000000000000815260040161031a90610e6f565b60405180910390fd5b600180549050821061036a576040517f08c379a000000000000000000000000000000000000000000000000000000000815260040161036190610ed7565b60405180910390fd5b6001828154811061037e5761037d610ef5565b5b905f5260205f2090600202016001015f81548092919061039d90610f4f565b91905055507f866dc605853954ffa419910eb05d67f430efec2e7db7ce135bf55565667a4ab433600184815481106103d8576103d7610ef5565b5b905f5260205f2090600202015f016040516103f4929190611026565b60405180910390a1505050565b5f602052805f5260405f205f91509050805f015f9054906101000a900460ff16908060010154905082565b5f805f3373ffffffffffffffffffffffffffffffffffffffff1673ffffffffffffffffffffffffffffffffffffffff1681526020019081526020015f205f015f9054906101000a900460ff16156104b8576040517f08c379a00000000000000000000000000000000000000000000000000000000081526004016104af9061109e565b60405180910390fd5b33426040516020016104cb929190611121565b6040516020818303038152906040528051906020012090506040518060400160405280600115158152602001828152505f803373ffffffffffffffffffffffffffffffffffffffff1673ffffffffffffffffffffffffffffffffffffffff1681526020019081526020015f205f820151815f015f6101000a81548160ff021916908315150217905550602082015181600101559050507fcb132692088ed2362f97fa54137ebf47a8e5829794ddfbd9f1959728d27e3f4e338260405161059292919061114c565b60405180910390a190565b60605f80805f90505b60018054905081101561061b5782600182815481106105c8576105c7610ef5565b5b905f5260205f20906002020160010154111561060857600181815481106105f2576105f1610ef5565b5b905f5260205f2090600202016001015492508091505b808061061390610f4f565b9150506105a6565b50600181815481106106305761062f610ef5565b5b905f5260205f2090600202015f01805461064990610b21565b80601f016020809104026020016040519081016040528092919081815260200182805461067590610b21565b80156106c05780601f10610697576101008083540402835291602001916106c0565b820191905f5260205f20905b8154815290600101906020018083116106a357829003601f168201915b50505050509250505090565b5f604051905090565b5f80fd5b5f80fd5b5f819050919050565b6106ef816106dd565b81146106f9575f80fd5b50565b5f8135905061070a816106e6565b92915050565b5f60208284031215610725576107246106d5565b5b5f610732848285016106fc565b91505092915050565b5f81519050919050565b5f82825260208201905092915050565b5f5b83811015610772578082015181840152602081019050610757565b5f8484015250505050565b5f601f19601f8301169050919050565b5f6107978261073b565b6107a18185610745565b93506107b1818560208601610755565b6107ba8161077d565b840191505092915050565b6107ce816106dd565b82525050565b5f6040820190508181035f8301526107ec818561078d565b90506107fb60208301846107c5565b9392505050565b5f80fd5b5f80fd5b7f4e487b71000000000000000000000000000000000000000000000000000000005f52604160045260245ffd5b6108408261077d565b810181811067ffffffffffffffff8211171561085f5761085e61080a565b5b80604052505050565b5f6108716106cc565b905061087d8282610837565b919050565b5f67ffffffffffffffff82111561089c5761089b61080a565b5b6108a58261077d565b9050602081019050919050565b828183375f83830152505050565b5f6108d26108cd84610882565b610868565b9050828152602081018484840111156108ee576108ed610806565b5b6108f98482856108b2565b509392505050565b5f82601f83011261091557610914610802565b5b81356109258482602086016108c0565b91505092915050565b5f60208284031215610943576109426106d5565b5b5f82013567ffffffffffffffff8111156109605761095f6106d9565b5b61096c84828501610901565b91505092915050565b5f819050919050565b61098781610975565b8114610991575f80fd5b50565b5f813590506109a28161097e565b92915050565b5f80604083850312156109be576109bd6106d5565b5b5f6109cb85828601610994565b92505060206109dc858286016106fc565b9150509250929050565b5f73ffffffffffffffffffffffffffffffffffffffff82169050919050565b5f610a0f826109e6565b9050919050565b610a1f81610a05565b8114610a29575f80fd5b50565b5f81359050610a3a81610a16565b92915050565b5f60208284031215610a5557610a546106d5565b5b5f610a6284828501610a2c565b91505092915050565b5f8115159050919050565b610a7f81610a6b565b82525050565b610a8e81610975565b82525050565b5f604082019050610aa75f830185610a76565b610ab46020830184610a85565b9392505050565b5f602082019050610ace5f830184610a85565b92915050565b5f6020820190508181035f830152610aec818461078d565b905092915050565b7f4e487b71000000000000000000000000000000000000000000000000000000005f52602260045260245ffd5b5f6002820490506001821680610b3857607f821691505b602082108103610b4b57610b4a610af4565b5b50919050565b5f819050815f5260205f209050919050565b5f6020601f8301049050919050565b5f82821b905092915050565b5f60088302610bad7fffffffffffffffffffffffffffffffffffffffffffffffffffffffffffffffff82610b72565b610bb78683610b72565b95508019841693508086168417925050509392505050565b5f819050919050565b5f610bf2610bed610be8846106dd565b610bcf565b6106dd565b9050919050565b5f819050919050565b610c0b83610bd8565b610c1f610c1782610bf9565b848454610b7e565b825550505050565b5f90565b610c33610c27565b610c3e818484610c02565b505050565b5b81811015610c6157610c565f82610c2b565b600181019050610c44565b5050565b601f821115610ca657610c7781610b51565b610c8084610b63565b81016020851015610c8f578190505b610ca3610c9b85610b63565b830182610c43565b50505b505050565b5f82821c905092915050565b5f610cc65f1984600802610cab565b1980831691505092915050565b5f610cde8383610cb7565b9150826002028217905092915050565b610cf78261073b565b67ffffffffffffffff811115610d1057610d0f61080a565b5b610d1a8254610b21565b610d25828285610c65565b5f60209050601f831160018114610d56575f8415610d44578287015190505b610d4e8582610cd3565b865550610db5565b601f198416610d6486610b51565b5f5b82811015610d8b57848901518255600182019150602085019450602081019050610d66565b86831015610da85784890151610da4601f891682610cb7565b8355505b6001600288020188555050505b505050505050565b7f4e6f7420726567697374657265640000000000000000000000000000000000005f82015250565b5f610df1600e83610745565b9150610dfc82610dbd565b602082019050919050565b5f6020820190508181035f830152610e1e81610de5565b9050919050565b7f496e76616c696420766f746572206b65790000000000000000000000000000005f82015250565b5f610e59601183610745565b9150610e6482610e25565b602082019050919050565b5f6020820190508181035f830152610e8681610e4d565b9050919050565b7f496e76616c69642063616e6469646174650000000000000000000000000000005f82015250565b5f610ec1601183610745565b9150610ecc82610e8d565b602082019050919050565b5f6020820190508181035f830152610eee81610eb5565b9050919050565b7f4e487b71000000000000000000000000000000000000000000000000000000005f52603260045260245ffd5b7f4e487b71000000000000000000000000000000000000000000000000000000005f52601160045260245ffd5b5f610f59826106dd565b91507fffffffffffffffffffffffffffffffffffffffffffffffffffffffffffffffff8203610f8b57610f8a610f22565b5b600182019050919050565b610f9f81610a05565b82525050565b5f8154610fb181610b21565b610fbb8186610745565b9450600182165f8114610fd55760018114610feb5761101d565b60ff19831686528115156020028601935061101d565b610ff485610b51565b5f5b8381101561101557815481890152600182019150602081019050610ff6565b808801955050505b50505092915050565b5f6040820190506110395f830185610f96565b818103602083015261104b8184610fa5565b90509392505050565b7f416c7265616479207265676973746572656400000000000000000000000000005f82015250565b5f611088601283610745565b915061109382611054565b602082019050919050565b5f6020820190508181035f8301526110b58161107c565b9050919050565b5f8160601b9050919050565b5f6110d2826110bc565b9050919050565b5f6110e3826110c8565b9050919050565b6110fb6110f682610a05565b6110d9565b82525050565b5f819050919050565b61111b611116826106dd565b611101565b82525050565b5f61112c82856110ea565b60148201915061113c828461110a565b6020820191508190509392505050565b5f60408201905061115f5f830185610f96565b61116c6020830184610a85565b939250505056fea2646970667358221220ed18ebd0b72ed9e60fdff88f47fd5ffab0b62bec6970cb6326279bee0679adae64736f6c63430008150033",
  "immutableReferences": {},
  "source": "// SPDX-License-Identifier: MIT\r\npragma solidity ^0.8.0;\r\n\r\ncontract VotingSystem {\r\n    struct Voter {\r\n        bool isRegistered;\r\n        bytes32 voterKey;\r\n    }\r\n\r\n    struct Candidate {\r\n        string name;\r\n        uint256 voteCount;\r\n    }\r\n\r\n    mapping(address => Voter) public voters;\r\n    Candidate[] public candidates;\r\n\r\n    event VoterRegistered(address voterAddress, bytes32 voterKey);\r\n    event VoteCast(address voterAddress, string candidate);\r\n\r\n    function registerVoter() public returns (bytes32 voterKey) {\r\n        require(!voters[msg.sender].isRegistered, \"Already registered\");\r\n        voterKey = keccak256(abi.encodePacked(msg.sender, block.timestamp));\r\n        voters[msg.sender] = Voter(true, voterKey);\r\n        emit VoterRegistered(msg.sender, voterKey);\r\n    }\r\n\r\n    function addCandidate(string memory name) public {\r\n        candidates.push(Candidate(name, 0));\r\n    }\r\n\r\n    function vote(bytes32 voterKey, uint256 candidateIndex) public {\r\n        Voter storage voter = voters[msg.sender];\r\n        require(voter.isRegistered, \"Not registered\");\r\n        require(voter.voterKey == voterKey, \"Invalid voter key\");\r\n        require(candidateIndex < candidates.length, \"Invalid candidate\");\r\n        candidates[candidateIndex].voteCount++;\r\n        emit VoteCast(msg.sender, candidates[candidateIndex].name);\r\n    }\r\n\r\n    function getWinningCandidate() public view returns (string memory) {\r\n        uint256 maxVotes = 0;\r\n        uint256 winningIndex;\r\n        for (uint256 i = 0; i < candidates.length; i++) {\r\n            if (candidates[i].voteCount > maxVotes) {\r\n                maxVotes = candidates[i].voteCount;\r\n                winningIndex = i;\r\n            }\r\n        }\r\n        return candidates[winningIndex].name;\r\n    }\r\n}",
  "sourcePath": "C:\\Users\\sanaa\\Desktop\\sem-6\\bc\\lab\\project\\contracts\\VotingSystem.sol",
  "compiler": {
    "name": "solc",
    "version": "0.8.21+commit.d9974bed.Emscripten.clang"
  },
  "schemaVersion": "3.4.16",
  "updatedAt": "2024-04-24T16:00:23.323Z",
  "networkType": "ethereum",
  "devdoc": {
    "kind": "dev",
    "methods": {},
    "version": 1
  },
  "userdoc": {
    "kind": "user",
    "methods": {},
    "version": 1
  }
}